{
  "_format": "hh-sol-artifact-1",
  "contractName": "Greet",
  "sourceName": "contracts/Greeter.sol",
  "abi": [
    {
      "inputs": [
        {
          "internalType": "string",
          "name": "_greet",
          "type": "string"
        }
      ],
      "stateMutability": "nonpayable",
      "type": "constructor"
    },
    {
      "anonymous": false,
      "inputs": [
        {
          "indexed": false,
          "internalType": "address",
          "name": "owner",
          "type": "address"
        }
      ],
      "name": "newgreet",
      "type": "event"
    },
    {
      "inputs": [],
      "name": "greet",
      "outputs": [
        {
          "internalType": "string",
          "name": "",
          "type": "string"
        }
      ],
      "stateMutability": "view",
      "type": "function"
    },
    {
      "inputs": [],
      "name": "greeting",
      "outputs": [
        {
          "internalType": "string",
          "name": "",
          "type": "string"
        }
      ],
      "stateMutability": "view",
      "type": "function"
    },
    {
      "inputs": [
        {
          "internalType": "string",
          "name": "_greet",
          "type": "string"
        }
      ],
      "name": "set_greeting",
      "outputs": [],
      "stateMutability": "nonpayable",
      "type": "function"
    }
  ],
  "bytecode": "0x60806040523480156200001157600080fd5b5060405162000d3c38038062000d3c8339818101604052810190620000379190620001e3565b80600090816200004891906200047f565b505062000566565b6000604051905090565b600080fd5b600080fd5b600080fd5b600080fd5b6000601f19601f8301169050919050565b7f4e487b7100000000000000000000000000000000000000000000000000000000600052604160045260246000fd5b620000b9826200006e565b810181811067ffffffffffffffff82111715620000db57620000da6200007f565b5b80604052505050565b6000620000f062000050565b9050620000fe8282620000ae565b919050565b600067ffffffffffffffff8211156200012157620001206200007f565b5b6200012c826200006e565b9050602081019050919050565b60005b83811015620001595780820151818401526020810190506200013c565b60008484015250505050565b60006200017c620001768462000103565b620000e4565b9050828152602081018484840111156200019b576200019a62000069565b5b620001a884828562000139565b509392505050565b600082601f830112620001c857620001c762000064565b5b8151620001da84826020860162000165565b91505092915050565b600060208284031215620001fc57620001fb6200005a565b5b600082015167ffffffffffffffff8111156200021d576200021c6200005f565b5b6200022b84828501620001b0565b91505092915050565b600081519050919050565b7f4e487b7100000000000000000000000000000000000000000000000000000000600052602260045260246000fd5b600060028204905060018216806200028757607f821691505b6020821081036200029d576200029c6200023f565b5b50919050565b60008190508160005260206000209050919050565b60006020601f8301049050919050565b600082821b905092915050565b600060088302620003077fffffffffffffffffffffffffffffffffffffffffffffffffffffffffffffffff82620002c8565b620003138683620002c8565b95508019841693508086168417925050509392505050565b6000819050919050565b6000819050919050565b6000620003606200035a62000354846200032b565b62000335565b6200032b565b9050919050565b6000819050919050565b6200037c836200033f565b620003946200038b8262000367565b848454620002d5565b825550505050565b600090565b620003ab6200039c565b620003b881848462000371565b505050565b5b81811015620003e057620003d4600082620003a1565b600181019050620003be565b5050565b601f8211156200042f57620003f981620002a3565b6200040484620002b8565b8101602085101562000414578190505b6200042c6200042385620002b8565b830182620003bd565b50505b505050565b600082821c905092915050565b6000620004546000198460080262000434565b1980831691505092915050565b60006200046f838362000441565b9150826002028217905092915050565b6200048a8262000234565b67ffffffffffffffff811115620004a657620004a56200007f565b5b620004b282546200026e565b620004bf828285620003e4565b600060209050601f831160018114620004f75760008415620004e2578287015190505b620004ee858262000461565b8655506200055e565b601f1984166200050786620002a3565b60005b8281101562000531578489015182556001820191506020850194506020810190506200050a565b868310156200055157848901516200054d601f89168262000441565b8355505b6001600288020188555050505b505050505050565b6107c680620005766000396000f3fe608060405234801561001057600080fd5b50600436106100415760003560e01c80639cc330af14610046578063cfae321714610062578063ef690cc014610080575b600080fd5b610060600480360381019061005b9190610362565b61009e565b005b61006a6100e8565b604051610077919061042a565b60405180910390f35b610088610176565b604051610095919061042a565b60405180910390f35b7faa39a41bc47d90cec0a53af98977cec608efd1f9edafc35fee26ace041a5ae7b336040516100cd919061048d565b60405180910390a180600090816100e491906106be565b5050565b600080546100f5906104d7565b80601f0160208091040260200160405190810160405280929190818152602001828054610121906104d7565b801561016e5780601f106101435761010080835404028352916020019161016e565b820191906000526020600020905b81548152906001019060200180831161015157829003601f168201915b505050505081565b606060008054610185906104d7565b80601f01602080910402602001604051908101604052809291908181526020018280546101b1906104d7565b80156101fe5780601f106101d3576101008083540402835291602001916101fe565b820191906000526020600020905b8154815290600101906020018083116101e157829003601f168201915b5050505050905090565b6000604051905090565b600080fd5b600080fd5b600080fd5b600080fd5b6000601f19601f8301169050919050565b7f4e487b7100000000000000000000000000000000000000000000000000000000600052604160045260246000fd5b61026f82610226565b810181811067ffffffffffffffff8211171561028e5761028d610237565b5b80604052505050565b60006102a1610208565b90506102ad8282610266565b919050565b600067ffffffffffffffff8211156102cd576102cc610237565b5b6102d682610226565b9050602081019050919050565b82818337600083830152505050565b6000610305610300846102b2565b610297565b90508281526020810184848401111561032157610320610221565b5b61032c8482856102e3565b509392505050565b600082601f8301126103495761034861021c565b5b81356103598482602086016102f2565b91505092915050565b60006020828403121561037857610377610212565b5b600082013567ffffffffffffffff81111561039657610395610217565b5b6103a284828501610334565b91505092915050565b600081519050919050565b600082825260208201905092915050565b60005b838110156103e55780820151818401526020810190506103ca565b60008484015250505050565b60006103fc826103ab565b61040681856103b6565b93506104168185602086016103c7565b61041f81610226565b840191505092915050565b6000602082019050818103600083015261044481846103f1565b905092915050565b600073ffffffffffffffffffffffffffffffffffffffff82169050919050565b60006104778261044c565b9050919050565b6104878161046c565b82525050565b60006020820190506104a2600083018461047e565b92915050565b7f4e487b7100000000000000000000000000000000000000000000000000000000600052602260045260246000fd5b600060028204905060018216806104ef57607f821691505b602082108103610502576105016104a8565b5b50919050565b60008190508160005260206000209050919050565b60006020601f8301049050919050565b600082821b905092915050565b60006008830261056a7fffffffffffffffffffffffffffffffffffffffffffffffffffffffffffffffff8261052d565b610574868361052d565b95508019841693508086168417925050509392505050565b6000819050919050565b6000819050919050565b60006105bb6105b66105b18461058c565b610596565b61058c565b9050919050565b6000819050919050565b6105d5836105a0565b6105e96105e1826105c2565b84845461053a565b825550505050565b600090565b6105fe6105f1565b6106098184846105cc565b505050565b5b8181101561062d576106226000826105f6565b60018101905061060f565b5050565b601f8211156106725761064381610508565b61064c8461051d565b8101602085101561065b578190505b61066f6106678561051d565b83018261060e565b50505b505050565b600082821c905092915050565b600061069560001984600802610677565b1980831691505092915050565b60006106ae8383610684565b9150826002028217905092915050565b6106c7826103ab565b67ffffffffffffffff8111156106e0576106df610237565b5b6106ea82546104d7565b6106f5828285610631565b600060209050601f8311600181146107285760008415610716578287015190505b61072085826106a2565b865550610788565b601f19841661073686610508565b60005b8281101561075e57848901518255600182019150602085019450602081019050610739565b8683101561077b5784890151610777601f891682610684565b8355505b6001600288020188555050505b50505050505056fea2646970667358221220b2c3cd70fe306e7f746b7f1a0acf78ffcc0a0383edb4dab843c7138eb040612964736f6c63430008110033",
  "linkReferences": {},
  "deployedLinkReferences": {}
}